:040000000C94A501B6
:040008000C94001440
:040028000C944B14D5
:14008C000100000000010000000000FFFF010000000000005F
:1400A000000000FFFF010002000000FFFF000000000000004D
:1400B400000100000000000000000000000000000000000136
:1400C80000010000000000FFFFFFFF00000000000001000026
:1400DC0000000001000000000000000000000000000000000F
:1400F0000000000000000000000000000000000000000000FC
:140104000000000000000000000000000000000000000000E7
:140118000000000000000000000000000000000000000000D3
:14012C000000000000000000000000000000000000000000BF
:140140000000000000000000000000000000000000000000AB
:14015400000000000000000000000000000000000000000097
:14016800000000000000000000000000000000000000000083
:14017C0000000000000000000000000000000000000000006F
:1401900000000000000000000000000000000000000000005B
:1401A400000000000000000000000000000000000000000047
:1401B800000000000000000000000000000000000000000033
:1401CC0000000000000000000000000000000000000000001F
:1401E00000000000000000000000000000000000000000000B
:1401F4000000000000000000000000000000000000000000F7
:140208000000000000000000000000000000000000000000E2
:14021C000000000000000000000000000000000000000000CE
:140230000000000000000000000000000000000000000000BA
:140244000000000000000000000000000000000000000000A6
:140258000000000000000000000000FFFFFFFFFFFFFFFF009A
:14026C000000000010010007000000000000000000000F0057
:1402800057687920646F6E277420796F752067697665207559
:14029400703F00594F55204C4F5345206861686100564943C3
:1402A800544F54592121007273686970330063686F6F7369D2
:1402BC006E67207468652068617264206D6F646500596F7537
:1402D00027726520676F6E6E6120726567726574004F682C5D
:1402E40020736572696F75736C793F0048415244204D4F4499
:1402F800450045415359204D4F44450043484F4F5345204411
:14030C004946464943554C59004D554C5449204D4F444500B2
:1403200053494E474C45204D4F444500424154544C4553486B
:1403340049502047414D450072736869703200727368697064
:140348003100CFEFD0E1CDBFDEBFC451D0400AEA0883002410
:14035C00EEEBF3E014E0E73DF10711F00192FBCF0083ECE81C
:14037000F0E0A0E0B1E013E000E00BBFEA34F10721F0C89577
:1403840031960D92F9CF0E949D25FFCF0E94C846E22EC02E57
:1403980021976B854D85AA2411C02090000128822E2D2A0D4B
:1403AC000C2D59D22090000128822E2D2A0D0C2D060F01504D
:1403C00050D2A394A41668F3AA2411C02090000128822E2D66
:1403D4000C2D0A0D44D22090000128822E2D240F21500C2D1C
:1403E8000A0D3BD2A394A61668F321960C94BD460E94B3459B
:1403FC000E94C8462197AF844A2D5527662777272A2C332487
:14041000220C331C81E090E07C01E218F3086C01AA24BB24FE
:1404240078C02090000128822D853327260F371F0B851127D2
:14043800040F151F12D22090000128822D853327260F371F93
:14044C000B851127041B150B06D22090000128822D85332756
:14046000261B370B0B851127041B150BFAD1209000012882D8
:140474002D853327261B370B0B851127040F151FEED1209067
:14048800000128822D853327240F351F0B851127060F171F0F
:14049C00E2D12090000128822D853327240F351F0B851127E3
:1404B000061B170BD6D12090000128822D853327241B350B68
:1404C4000B851127061B170BCAD12090000128822D85332717
:1404D800241B350B0B851127060F171FBED16F5F7F4FAC0C9B
:1404EC00BD1CC60102966C011501220C331C2E0C3F1C4424C7
:140500005524421453043CF441505040AE0CBF1CC70102967B
:140514007C01461757070CF084CF21960E94BD462496089599
:140528000E94B3450E94C846790129972F88388C0B881C8889
:14053C00201831083A822982298C3A8C2E183F083C822B8260
:1405500029803A800101200C311C3E822D822B803C800101E1
:14056400200C311C38862F82AB88BC88670141E050E061E02A
:1405780070E089819A818030E0E09E0784F44FEF5FEF8095CC
:14058C0090958F5F9F4F9A8389838D819E81809590958F5FDC
:1405A0009F4F9E838D838B819C818030E0E09E0784F46FEF14
:1405B4007FEF809590958F5F9F4F9C838B838F819885809540
:1405C80090958F5F9F4F98878F832090000128822E2D0B89A3
:1405DC001C8941D109801A80002049F4112039F40B801C804F
:1405F000002019F4112009F444C009801A800B811C81001636
:140604001106FCF0EE24FF24A40EB51E0F801884E00CF11C01
:1406180009801A800E141F0434F4C60ED71E0D801E80E01852
:14062C00F1082090000128822C2D0A2D14D10F88188CA01402
:14064000B10421F71EC0EE24FF24C60ED71E0D801E80E00CE6
:14065400F11C0B801C800E141F0434F4A40EB51E0F80188441
:14066800E018F1082090000128822C2D0A2DF5D0098C1A8CA2
:14067C00C014D10421F729960E94BD462496089521972224F0
:14069000288204C0000088818F5F888380E190E0A0E0B0E005
:1406A4002880332444245524281639064A065B0678F3219612
:1406B80008958FEF8ABB8FE384BB85B38F6385BB0895AA92DA
:1406CC0022242ABA85B3897F85BBDADFA9B28FEF8ABB85B361
:1406E000866085BB0A2DA9900895AA92A02EEDDF802F83705B
:1406F400E1F3ABBA85B38A7F85BBC6DF85B3856085BBA990FD
:140708000895AA92A02EDDDF802F8370E1F3ABBA85B3827F66
:14071C0085BBB6DF85B38D6085BBA9900895AA92CEDF802F21
:140730008370E1F322242ABA85B3817F85BBA6DFA9B285B334
:140744008E6085BB8FEF8ABB0A2DA99008954A935A93A80130
:140758008A011070D6DF8A01012F1127D2DF04E2C0DF5991BA
:14076C00499108954A935A9300271127ECDF44275527002700
:14078000A7D04F5F5F4F403EE1E05E07C4F3599149910895D6
:140794004A935A9300E010E1DADF4427552704C0002794D0C7
:1407A8004F5F5F4F4030E8E05E07C0F35991499108954A9353
:1407BC005A9300EE11E0C7DF44275527002782D04F5F5F4FFB
:1407D0004030EFE05E07C4F35991499108954A93402F042FDA
:1407E400005274D049910895AA92BA92580104C0F5010191C7
:1407F8005F01F1DFF50120802220C1F7B990A99008950E946C
:14080C00CE46C22EA02E8EE18C9D2A2C3324200C311C5101F6
:14082000810197DF0C94B8460E94F5465901C02E4C2D552714
:14083400440F551F440F551F440F551F4050504F8A0185DF3D
:14084800442707C0E42FFF27EA0DFB1D00813CD04395483045
:14085C00B8F30C94FC460E94F546A22EC02E4E818EE18A9DFB
:14087000100128E030E00C2D11270E94BC45C80180529E4FAF
:140884005C01A20CB31C850162DF05EC2CDF4BDFA02E41305A
:1408980059F418E00C2D0E945C4617E0101B01E00E9443475B
:1408AC00A02A0CC018E00C2D0E945C4617E0101B01E00E9488
:1408C0004347202E2094A2200A2D02D00C94FC46AA92A02EE1
:1408D4000A2D19DF00EC07DFA99008950E94CE46C22EA02EC5
:1408E8008EE18C9D100128E030E00A2D11270E94BC45C80160
:1408FC0080529E4F5C01A20CB31C850124DF0C94B846D5DE75
:14091000AC9801E010E024D0AC9AAD9800EEF5DE01E0F3DECC
:1409240002E4E1DE0EE1EFDE0027EDDE03E4DBDE0027E9DEDE
:140938000027E7DE00E4D5DE0EE1E3DE0027E1DE01E4CFDE00
:14094C0002E0DDDE0027DBDE02E2C9DE0CE9C7DE00E8C5CE7A
:140960000E94DD46442755270AC0662777276F5F7F4F6433AF
:14097400E8E07E07D4F34F5F5F4F4017510798F30C94E246FD
:1409880005DF17DFF1CE0E9403475901680121970DE010E07E
:14099C0096010E947446B8016B577F4F0DE010E095010E94F6
:1409B0007446C80143965C014CEF5FEF8BEF9FEF6C012090CC
:1409C4000001288295012C0D3D1D8B01040F151F46DFC6018C
:1409D80001966C018530E0E09E077CF34F5F5F4F4630E0E0EC
:1409EC005E0734F321960C940C470E94F546690158014427B6
:140A000055271A01220C331C21018BE091E0F101E80FF91FCF
:140A1400208031809601220D331D81E091E0F201E80FF91F93
:140A2800208031808501020D131DADDF4F5F5F4F4430E0E088
:140A3C005E070CF30C94FC460E94F5466901580144275527D9
:140A50001A01220C331C21018FE191E0F101E80FF91F208056
:140A640031809601220D331D85E191E0F201E80FF91F20803E
:140A780031808501020D131D86DF4F5F5F4F4530E0E05E0799
:140A8C000CF30C94FC460E94F54669015801442755271A01D3
:140AA000220C331C210183E391E0F101E80FF91F208031807A
:140AB4009601220D331D89E291E0F201E80FF91F20803180E9
:140AC8008501020D131D5FDF4F5F5F4F4230E0E05E070CF325
:140ADC000C94FC460E94F546580187EB93E0A816B90609F093
:140AF0008CC04427552781E091E0FA01EE0FFF1FE80FF91FC8
:140B04002080318030924C0120924B011A01220C331C2101C5
:140B18008BE091E0F101E80FF91F2080318081E091E0F201D6
:140B2C00E80FF91F318220828BE091E0FA01EE0FFF1FE80F68
:140B4000F91F20904B0130904C01318220821A01220C331C93
:140B540081E091E0F101E80FF91F808191818030E0E09E0792
:140B680064F48BE091E0F101E80FF91F208031804424552412
:140B7C0042145304CCF06A01CC0CDD1C81E091E0F601E80F00
:140B9000F91F808191818030E0E09E07ECF48BE091E0F6015E
:140BA400E80FF91F808191818030E0E09E0794F481E091E0AC
:140BB8006A01CC0CDD1CC80ED91EF601208131810FEF1FEFCA
:140BCC000E947446F6011183008311C08BE091E06A01CC0CBB
:140BE000DD1CC80ED91EF601208131810FEF1FEF0E94744689
:140BF400F601118300834F5F5F4F4430E0E05E070CF477CFA4
:140C08001BC180EB93E0A816B90609F08BC04427552785E110
:140C1C0091E0FA01EE0FFF1FE80FF91F2080318030924C01CE
:140C300020924B015A01AA0CBB1C8FE191E0F501E80FF91FE4
:140C44002080318085E191E0F501E80FF91F318220828FE1AA
:140C580091E0FA01EE0FFF1FE80FF91F20904B0130904C01E9
:140C6C00318220825A01AA0CBB1C85E191E0F501E80FF91F5B
:140C8000808191818030E0E09E0764F48FE191E0F501E80F12
:140C9400F91F208031804424552442145304CCF05A01AA0C88
:140CA800BB1C85E191E0F501E80FF91F808191818030E0E002
:140CBC009E07ECF48FE191E0F501E80FF91F808191818030F6
:140CD000E0E09E0794F485E191E05A01AA0CBB1CA80EB91ED7
:140CE400F501208131810FEF1FEF0E947446F501118300833E
:140CF80011C08FE191E05A01AA0CBB1CA80EB91EF50120812A
:140D0C0031810FEF1FEF0E947446F501118300834F5F5F4F50
:140D20004530E0E05E070CF478CF8AC04427552789E291E0D1
:140D3400FA01EE0FFF1FE80FF91F2080318030924C01209274
:140D48004B015A01AA0CBB1C83E391E0F501E80FF91F2080E7
:140D5C00318089E291E0F501E80FF91F3182208283E391E0C5
:140D7000FA01EE0FFF1FE80FF91F20904B0130904C0131828E
:140D840020825A01AA0CBB1C89E291E0F501E80FF91F8081EF
:140D980091818030E0E09E0764F483E391E0F501E80FF91FEC
:140DAC00208031804424552442145304CCF05A01AA0CBB1CB0
:140DC00089E291E0F501E80FF91F808191818030E0E09E0716
:140DD400ECF483E391E0F501E80FF91F808191818030E0E0CC
:140DE8009E0794F489E291E05A01AA0CBB1CA80EB91EF50183
:140DFC00208131810FEF1FEF0E947446F5011183008311C04A
:140E100083E391E05A01AA0CBB1CA80EB91EF5012081318139
:140E24000FEF1FEF0E947446F501118300834F5F5F4F423077
:140E3800E0E05E070CF478CF0C94FC460E94F54669015801B8
:140E4C00442755271A01220C331C210181E491E0F101E80F32
:140E6000F91F208031809601220D331D87E391E0F201E80F3A
:140E7400F91F208031808501020D131D86DD4F5F5F4F443009
:140E8800E0E05E070CF30C94FC460E940347590168012197E9
:140E9C000DE010E096010E947446B8016B577F4F0DE010E04C
:140EB00095010E947446C80143965C012224209200014BEF0A
:140EC4005FEF8AEF9FEF6C0120900001288295012C0D3D1DD4
:140ED8008B01040F151FC1DCC60101966C018630E0E09E07B0
:140EEC007CF34F5F5F4F4730E0E05E0734F381E080930001EF
:140F000021960C940C470E94E74658012C97F5012080318001
:140F140042805380288239824A825B82288039804A805B8020
:140F28008894222032044204520441F484E2888389ED89835D
:140F3C008BE58A8387E08B834DE153EF61E070E0088119818B
:140F50002A813B817A936A935A934A930E94F8450C831D8344
:140F64002E833F834DE153EF61E070E0088119812A813B817B
:140F78007A936A935A934A930E94FA45088719872A873B870E
:140F8C002C803D804E805F8044E15BE060E070E05A924A9283
:140FA0003A922A928A019B010E9484461801290168847984F6
:140FB4008A849B8447EA51E460E070E09A928A927A926A92B6
:140FC8008A019B010E948446380149016218730884089508E1
:140FDC00688279828A829B8240E050E060E070E028803980B2
:140FF0004A805B80241635064606570664F44FEF5FEF6FEFE8
:141004007FE7240E351E461E571E288239824A825B8228805E
:1410180039804A805B80F501208231824282538249E050E029
:14102C0060E070E0810192017A936A935A934A930E94F4455C
:141040002C960C94EE460DE411E05DCF18014424552430923C
:141054004E0120924D015092500140924F0108950E9403475B
:141068005901680124970DE010E096010E947446A8014B57DB
:14107C005F4F0DE010E095010E947446B8016D5E7F4F862FDC
:14109000992706971C013B822A82842F992704969983888335
:1410A4009101042F1127045010403CDA209000012882262FD1
:1410B8002550042F0550D1DB209000012882262F2550042F23
:1410CC000B5FC9DB262E33243B822A82842F992706971C01C1
:1410E00039822882262F3327245030408C011CDA262E3324D6
:1410F4003B822A82842F992706965C01B982A882222D332705
:14110800245030408C010CDA209000012882262F2450042F25
:14111C000350A1DB862F992702979B838A83842F99270297AB
:141130005C01B982A882262F3327245030408C01F3D920904D
:1411440000012882262F2150042F035088DB209000012882E2
:14115800262F042F035081DB209000012882262F2350042FF6
:14116C00045079DB209000012882262F2250042F045071DBD2
:14118000209000012882262F2450042F0D5F69DB862F9927DF
:1411940002979B838A83842F992702965C01B982A882262F61
:1411A8003327245030408C01BBD9209000012882262F2150B3
:1411BC00042F0D5F50DB209000012882262F042F0D5F49DBE2
:1411D000209000012882262F2350042F0C5F41DB209000017D
:1411E4002882262F2250042F0C5F39DB209000012882262F24
:1411F8002F5F042F055031DB209000012882262F2F5F042F50
:14120C000B5F29DB862F992705969B838A83842F9927049717
:141220005C01B982A882262F33272E5F3F4F8C017BD9862F98
:14123400992706966C01DB82CA82842F992704975C01B9828E
:14124800A88296018C016CD9862F992705969B838A83842F11
:14125C00992704965C01B982A882262F33272E5F3F4F8C010B
:141270005BD983E08A8385E08883262F2E5F042F025086D891
:1412840024960C940C470E9403475901680124970DE010E062
:1412980096010E947446A8014B575F4F0DE010E095010E9441
:1412AC007446B8016D5E7F4F83E08883262F2350042F035066
:1412C000DDD783E08883262F2350042F0D5FD6D7262E332439
:1412D4003B822A82842F9927069799838883222D332723504A
:1412E80030408C011DD9262E33243B822A82842F99270696DC
:1412FC0099838883222D3327235030408C010ED9862F992742
:1413100006969B838A83242E332439822882262F3327022D16
:14132400112706501040FED8862F992706969B838A83242E73
:14133800332439822882262F3327022D11270A5F1F4FEED832
:14134C0024960C940C470E94CE466901580124970DE010E0CF
:1413600095010E947446C8018B579F4FA82E0DE010E09601A4
:141374000E947446C8014396C82E992706969B838A838A2D33
:1413880099270696998388832C2D3327265030400A2D1127C6
:14139C0006501040C3D88C2D992706969B838A838A2D992745
:1413B0000697998388832C2D3327265030400A2D11270A5FF4
:1413C4001F4FB0D88C2D992705969B838A838A2D99270696CD
:1413D800998388832C2D3327265030400A2D1127055010402D
:1413EC009DD88C2D992706969B838A838A2D9927059699830A
:1414000088832C2D3327255030400A2D1127065010408AD8BE
:141414008C2D992706979B838A838A2D99270596998388834A
:141428002C2D33272B5F3F4F0A2D11270650104077D88C2DC8
:14143C00992705979B838A838A2D99270696998388832C2D82
:1414500033272A5F3F4F0A2D11270550104064D824960C946D
:14146400B8460E9403475901680124970DE010E096010E94F6
:141478007446A8014B575F4F0DE010E095010E947446B80125
:14148C006D5E7F4F862F992702979B838A83842F992705976B
:1414A00099838883262F332725503040042F11270250104070
:1414B40039D8862F992701979B838A83842F992705979983B0
:1414C8008883262F332724503040042F11270250104026D867
:1414DC00209000012882262F2550042F0350BBD9862F992748
:1414F00002969B838A83842F9927029799838883262F332743
:1415040021503040042F1127055010400BD8862F99270196F3
:141518009B838A83842F9927029799838883262F3327225040
:14152C003040042F1127055010400E949402862F99270496E4
:141540009B838A83842F9927059799838883262F33272F5FF9
:141554003F4F042F1127025010400E949402862F99270596A0
:141568009B838A83842F9927059799838883262F33272E5FD2
:14157C003F4F042F1127025010400E9494022090000128822D
:14159000262F2B5F042F045064D9209000012882262F25507F
:1415A400042F0F5F5CD9862F992702969B838A83842F9927B2
:1415B800019799838883262F332725503040042F11270E5FF4
:1415CC001F4F0E949402862F992701969B838A83842F9927BB
:1415E000019799838883262F332724503040042F11270E5FCD
:1415F4001F4F0E949402862F992701969B838A83842F992793
:14160800029699838883262F33272E5F3F4F042F1127015089
:14161C0010400E949402862F992702969B838A83842F992787
:14163000029699838883262F33272F5F3F4F042F1127015060
:1416440010400E949402862F992704969B838A83842F99275D
:14165800019799838883262F33272F5F3F4F042F11270E5F1C
:14166C001F4F0E949402862F992705969B838A83842F992716
:14168000019799838883262F33272E5F3F4F042F11270E5FF5
:141694001F4F0E949402209000012882262F2B5F042FDDD87A
:1416A800209000012882262F2550042F0B5FD5D8862F99274A
:1416BC0002979B838A83842F9927039699838883262F332774
:1416D00025503040042F11270A5F1F4F0E949402862F992732
:1416E40001979B838A83842F9927039699838883262F33274D
:1416F80024503040042F11270A5F1F4F0E949402862F99270B
:14170C0001969B838A83842F9927069699838883262F332722
:1417200022503040042F11270D5F1F4F0E949402862F9927E1
:1417340002969B838A83842F9927069699838883262F3327F9
:1417480021503040042F11270D5F1F4F0E949402862F9927BA
:14175C0004969B838A83842F9927039699838883262F3327D2
:141770002F5F3F4F042F11270A5F1F4F0E949402862F99275A
:1417840005969B838A83842F9927039699838883262F3327A9
:141798002E5F3F4F042F11270A5F1F4F0E94940220900001F7
:1417AC002882262F2B5F042F0C5F55D824960C940C470E9486
:1417C000DD4624974427552784E790E09B838A830DE010E06D
:1417D4009A010E947446C8010896998388832CE030E08C01D3
:1417E8000E9494020DE010E09A010E947446C8010C961C0159
:1417FC003B822A8280E790E099838883910108E010E00E9466
:14181000940284E790E09B838A830DE010E09A010E94744654
:14182400B80161587F4F798368832CE030E08B010E949402A9
:141838000DE010E09A010E947446B801645F7F4F7B836A8393
:14184C0087EE90E0998388839B010FE710E00E9494024F5F14
:141860005F4F4930E0E05E070CF4AECF24960C94E2460E9487
:14187400F546A22EC02E24978A2D99270C969B838A838C2DAF
:1418880099270296998388832A2D3327275F3F4F8C010E94D9
:14189C0094028A2D99270F969B838A838C2D9927039699832D
:1418B00088832A2D3327275F3F4F8C010E9494028A2D992718
:1418C4000F969B838A834C2D55274C5F5F4F598348832A2DF4
:1418D8003327275F3F4F8A010E9494028A2D992742969B835E
:1418EC008A834C2D55274B5F5F4F598348832A2D3327275FB0
:141900003F4F8A010E9494028A2D992745969B838A834C2D8C
:1419140055274A5F5F4F598348832A2D3327255F3F4F8A01F7
:141928000E9494028A2D992748969B838A834C2D5527495F56
:14193C005F4F598348832A2D33272F5F3F4F8A010E949402B2
:141950008A2D992749969B838A834C2D5527485F5F4F5983DC
:1419640048832A2D33278A010E9494028A2D992749969B83BC
:141978008A834C2D5527475F5F4F598348832A2D33278A0122
:14198C000E9494028A2D992749969B838A834C2D5527465FF4
:1419A0005F4F598348832A2D33272F5F3F4F8A010E9494024E
:1419B4008A2D992749969B838A834C2D5527455F5F4F59837B
:1419C80048832A2D3327295F3F4F8A010E9494028A2D99273F
:1419DC0049969B838A834C2D5527445F5F4F598348832A2DA9
:1419F0003327295F3F4F8A010E9494028A2D992749969B833C
:141A04008A834C2D5527435F5F4F598348832A2D3327285F9D
:141A18003F4F8A010E9494028A2D992749969B838A834C2D6F
:141A2C005527425F5F4F598348832A2D3327285F3F4F8A01E3
:141A40000E9494028A2D992749969B838A834C2D5527415F44
:141A54005F4F598348832A2D3327275F3F4F8A010E949402A1
:141A68008A2D992749969B838A834C2D5527405F5F4F5983CB
:141A7C0048832A2D3327275F3F4F8A010E9494028A2D99278C
:141A900047969B838A834C2D55274F5E5F4F598348832A2DEC
:141AA4003327265F3F4F8A010E9494028A2D992744969B838F
:141AB8008A834C2D55274E5E5F4F598348832A2D3327265FE1
:141ACC003F4F8A010E9494028A2D992740969B838A834C2DC4
:141AE00055274D5E5F4F598348832A2D3327245F3F4F8A0129
:141AF4000E94940224960C94FC460E94F546A22EC02E2497B4
:141B08002224209200018A2D99270C969B838A838C2D992713
:141B1C0002961C01398228822A2D3327275F3F4F8C010E94A7
:141B300094028A2D99270F969B838A838C2D992703961C0195
:141B4400398228822A2D3327275F3F4F8C010E9494028A2DE7
:141B580099270F969B838A834C2D55274C5F5F4F59834883F4
:141B6C002A2D3327275F3F4F8A010E9494028A2D992742968E
:141B80009B838A834C2D55274B5F5F4F598348832A2D332781
:141B9400275F3F4F8A010E9494028A2D992745969B838A83E9
:141BA8004C2D55274A5F5F4F598348832A2D3327255F3F4F73
:141BBC008A010E9494028A2D992748969B838A834C2D5527DD
:141BD000495F5F4F598348832A2D33272F5F3F4F8A010E940A
:141BE40094028A2D992749969B838A834C2D5527485F5F4F8C
:141BF800598348832A2D33278A010E9494028A2D9927499668
:141C0C009B838A834C2D5527475F5F4F598348832A2D3327F8
:141C20008A010E9494028A2D992749969B838A834C2D552777
:141C3400465F5F4F598348832A2D33272F5F3F4F8A010E94A8
:141C480094028A2D992749969B838A834C2D5527455F5F4F2A
:141C5C00598348832A2D3327295F3F4F8A010E9494028A2D8C
:141C7000992749969B838A834C2D5527445F5F4F59834883A9
:141C84002A2D3327295F3F4F8A010E9494028A2D992749966C
:141C98009B838A834C2D5527435F5F4F598348832A2D332770
:141CAC00285F3F4F8A010E9494028A2D992749969B838A83CB
:141CC0004C2D5527425F5F4F598348832A2D3327285F3F4F5F
:141CD4008A010E9494028A2D992749969B838A834C2D5527C3
:141CE800415F5F4F598348832A2D3327275F3F4F8A010E9401
:141CFC0094028A2D992749969B838A834C2D5527405F5F4F7B
:141D1000598348832A2D3327275F3F4F8A010E9494028A2DD9
:141D2400992747969B838A834C2D55274F5E5F4F59834883EC
:141D38002A2D3327265F3F4F8A010E9494028A2D99274496BF
:141D4C009B838A834C2D55274E5E5F4F598348832A2D3327B1
:141D6000265F3F4F8A010E9494028A2D992740969B838A8321
:141D74004C2D55274D5E5F4F598348832A2D3327245F3F4FA4
:141D88008A010E94940281E08093000124960C94FC460E94D1
:141D9C00F546C22EA02E8EE18C9D2A2C3324200C311C51012A
:141DB00081010E94A9034427552700270E9468044F5F5F4FD7
:141DC4004C30E0E05E07BCF30C94FC460E94F5466901580139
:141DD800219741E00DE010E095010E947446C8010E96A82E0C
:141DEC000DE010E096010E947446C8014296C82E86E088830B
:141E00002C2D0A2D0E94FC0185E088832C2D0A2D0E94FC0100
:141E140084E088832C2D0A2D0E94FC0121960C94FC460E94E1
:141E280003475901680124970DE010E096010E947446A80165
:141E3C00425F5F4F0DE010E095010E947446C8014296A82EFD
:141E5000992705969B838A83842F99270497998388832A2D6C
:141E64003327265030408C010E9494028A2D992704969B8336
:141E78008A83842F99270397998388832A2D3327255030407F
:141E8C008C010E9494028A2D992703969B838A83642F772711
:141EA00062507040798368832A2D3327255030408B010E9421
:141EB40094028A2D992702969B838A83642F772761507040B8
:141EC800798368832A2D3327245030408B010E9494028A2D0F
:141EDC00992703969B838A83242E3324398228822A2D3327AF
:141EF00024503040022D11270E9494028A2D992705969B832B
:141F04008A83642F77276F5F7F4F798368832A2D33272350E4
:141F180030408B010E9494022A2C33243B822A82642F77273A
:141F2C006E5F7F4F79836883222D3327235030408B010E9465
:141F400094022A2C33243B822A82642F77276D5F7F4F79831A
:141F54006883222D3327225030408B010E9494022A2C332492
:141F68003B822A82642F77276C5F7F4F79836883222D3327A2
:141F7C00215030408B010E9494022A2C33243B822A82642F03
:141F900077276B5F7F4F79836883222D3327215030408B010A
:141FA4000E9494022090000128822A2D042F0A5F0E943104CC
:141FB8008A2D992706969B838A83642F77276E5F7F4F79830F
:141FCC0068832A2D33272E5F3F4F8B010E9494028A2D99270F
:141FE00006969B838A83642F77276D5F7F4F798368832A2D1D
:141FF40033272D5F3F4F8B010E9494028A2D992705969B8371
:142008008A8355274C5F5F4F598348832A2D33272C5F3F4F71
:14201C008A010E94940224960C940C470E9403475901680191
:1420300024970DE010E096010E947446A801425F5F4F0DE02C
:1420440010E095010E947446B8016E5E7F4F862F9927069741
:142058001C013B822A82842F99270496998388839101042FF5
:14206C001127045010400E949402209000012882262F255027
:14208000042F05500E943104209000012882262F2550042F95
:142094000B5F0E943104262E33243B822A82842F99270697D3
:1420A8001C0139822882262F3327245030408C010E9494024A
:1420BC00262E33243B822A82842F992706965C01B982A8822B
:1420D000222D3327245030408C010E9494022090000128824F
:1420E400262F2450042F03500E943104862F992702979B8396
:1420F8008A83842F992702975C01B982A882262F33272450D6
:14210C0030408C010E949402209000012882262F2150042F36
:1421200003500E943104209000012882262F042F03500E94A9
:142134003104209000012882262F2350042F04500E943104E1
:14214800209000012882262F2250042F04500E943104209053
:14215C0000012882262F2450042F0D5F0E943104862F992710
:1421700002979B838A83842F992702965C01B982A882262F75
:142184003327245030408C010E949402209000012882262F94
:142198002150042F0D5F0E943104209000012882262F042F69
:1421AC000D5F0E943104209000012882262F2350042F0C5F1B
:1421C0000E943104209000012882262F2250042F0C5F0E94D2
:1421D4003104209000012882262F2F5F042F05500E94310425
:1421E800209000012882262F2F5F042F0B5F0E943104862F7C
:1421FC00992705969B838A83842F992704975C01B982A88279
:14221000262F33272E5F3F4F8C010E949402862F992706961A
:142224006C01DB82CA82842F992704975C01B982A882960129
:142238008C010E949402862F992705969B838A83842F99271F
:14224C0004965C01B982A882262F33272E5F3F4F8C010E9429
:14226000940283E08A8385E08883262F2E5F042F02500E94EB
:14227400C80124960C940C470E94B3450E94C8462197AF84AB
:142288004A2D5527662777272A2C3324220C331C81E090E029
:14229C005C01A218B3087C01CC24DD244CC020900001288287
:1422B0002D853327261B370B0B851127041B150B0E943104AD
:1422C4002090000128822D853327261B370B0B851127040F41
:1422D800151F0E9431042090000128822D853327241B350B01
:1422EC000B851127061B170B0E9431042090000128822D85EF
:142300003327241B350B0B851127060F171F0E9431046F5F38
:142314007F4FCE0CDF1CC70102967C011601220C331C2A0C6B
:142328003B1C44245524421453043CF441505040CA0CDB1C9E
:14233C00C50102965C01461757070CF0B0CF21960E94BD4640
:14235000249608950E9403475901680124970DE010E0960144
:142364000E947446A801425F5F4F0DE010E095010E94744642
:14237800B8016E5E7F4F83E08883262F2350042F035078DFEB
:14238C0083E08883262F2350042F0D5F71DF262E33243B82B0
:1423A0002A82842F9927069799838883222D332723503040BA
:1423B4008C010E949402262E33243B822A82842F992706962D
:1423C80099838883222D3327235030408C010E949402862FD4
:1423DC00992706969B838A83242E332439822882262F3327A9
:1423F000022D1127065010400E949402862F992706969B8365
:142404008A83242E332439822882262F3327022D11270A5F2A
:142418001F4F0E94940224960C940C470E94034759016801AE
:14242C0024970DE010E096010E947446A801425F5F4F0DE02C
:1424400010E095010E947446B8016E5E7F4F862F9927039744
:142454009B838A83842F992704971C0139822882262F33270A
:14246800245030408C010E949402862F992703979B838A837D
:14247C00842F992702971C0139822882262F3327245030402B
:142490008C010E949402862F992703979B838A83842F9927C6
:1424A40002965C01B982A882262F3327245030408C010E9408
:1424B8009402862F992703979B838A83842F992704965C01D6
:1424CC00B982A882262F3327245030408C010E949402262EEB
:1424E00033243B822A82842F9927049699838883222D33274B
:1424F400042F1127045010400E949402862F992703969B8361
:142508008A83842F992703975C01B982A882262F33272F5FA6
:14251C003F4F8C010E949402862F992703969B838A83842F6C
:14253000992703965C01B982A882262F33272F5F3F4F8C0124
:142544000E949402862F992702969B838A83242E33243982AF
:142558002882262F33272F5F3F4F022D11270E949402862FA6
:14256C00992704965C01BB82AA82842F992701979983888309
:142580009501042F1127025010400E949402862F992704965D
:142594009B838A83842F9927029699838883262F33272D5F9B
:1425A8003F4F042F11270F5F1F4F0E949402862F9927059602
:1425BC005C01BB82AA82842F99270196998388839501042F4B
:1425D0001127015010400E94940281E08883262F2550042F7D
:1425E40003500E94310481E08883262F2250042F03500E945E
:1425F800310481E08883262F2550042F0D5F0E94310481E08D
:14260C008883262F2250042F0D5F0E94310424960C940C47C5
:142620000E94CE466901580124970DE010E095010E947446A3
:14263400C8010E96A82E0DE010E096010E947446C8014296DE
:14264800C82E992706969B838A838A2D9927069699838883C7
:14265C002C2D3327265030400A2D1127065010400E94940284
:142670008C2D992706969B838A838A2D9927069799838883DB
:142684002C2D3327265030400A2D11270A5F1F4F0E9494022B
:142698008C2D992705969B838A838A2D9927069699838883B5
:1426AC002C2D3327265030400A2D1127055010400E94940235
:1426C0008C2D992706969B838A838A2D99270596998388838D
:1426D4002C2D3327255030400A2D1127065010400E9494020D
:1426E8008C2D992706979B838A838A2D992705969983888364
:1426FC002C2D33272B5F3F4F0A2D1127065010400E949402B2
:142710008C2D992705979B838A838A2D99270696998388833B
:142724002C2D33272A5F3F4F0A2D1127055010400E9494028B
:1427380024960C94B8460E94C8466901580121970DE010E02D
:14274C0095010E947446C8010E965C010DE010E096010E94A7
:142760007446C80142966C0144276BEF7FEF8BEF9FEF7C01E5
:14277400488396012E0D3F1D8501060F171F0E943104C701E8
:1427880001967C018730E0E09E0784F36F5F7F4F6730E0E0A3
:14279C007E073CF341E021960C94BD460E94F546690158015A
:1427B000219741E00DE010E095010E947446C8018B579F4FD4
:1427C400A82E0DE010E096010E947446C8014396C82E86E05D
:1427D80088832C2D0A2D0E94FC0185E088832C2D0A2D0E9411
:1427EC00FC0184E088832C2D0A2D0E94FC0121960C94FC46A5
:142800000A921A922A923A924A925A926A927A928A929A92DC
:142814000A931A932A933A938A939A93AA93BA93EA93FA93FE
:142828000FB60A922090D602222079F480E385BF04EF11E079
:14283C000E94B00480E88FBF8091D6028F5F8093D60288959D
:142850000BC0222425BE04EF11E00E94B0048091D60281508C
:142864008093D60209900FBEF991E991B991A9919991899143
:1428780039912991199109919990899079906990599049907E
:14288C00399029901990099018950A921A922A923A924A921B
:1428A0005A926A927A928A929A920A931A932A933A938A93F7
:1428B4009A93AA93BA93EA93FA930FB60A928091E2029091D8
:1428C800E30201969093E3028093E2028D37E0E09E0709F05F
:1428DC005EC08091E40281508093E4028A30E0F022270EE048
:1428F0000E9405041AE00091E4020E945E46005D0E94EF0381
:142904001AE00091E4020E945C46005D0E94EF03222700E1EF
:142918000E94050400270E94680417C022270EE00E94050412
:14292C0000270E94680422270FE00E9405040091E402005DAB
:142940000E94EF03222700E10E94050400270E946804209035
:14295400E4022220A1F422270FE00E94050400270E9468049A
:1429680000270E94680400270E94680480E18093E402222451
:14297C002092E502F9D62090D502222011F4222427BE2224A0
:1429900033243092E3022092E20283E884BD09900FBEF99103
:1429A400E991B991A9919991899139912991199109919990EC
:1429B8008990799069905990499039902990199009901895BD
:1429CC005D9BFECF0CB90895222427B8369A349BFECF24B06B
:1429E00033243092D0032092CF0325B1332700E011E00E94D0
:1429F40074462090CF033090D003200E311E3092D00320923C
:142A0800CF0381E087B9369A349BFECF24B033243092CE031D
:142A1C002092CD0325B1332700E011E00E9474462090CD0347
:142A30003090CE03200E311E3092CE032092CD038091F0026C
:142A44009091F10201969093F1028093F0022CE231E08C010C
:142A58000E94B8451093F1020093F0020895949A04EF11E001
:142A6C000E94B00482B38F7E82BB089522242092E80223E0FF
:142A800008E00E94050400EA13E00E94F60328E002E00E94AB
:142A9400050404E913E00E94F60328E001E10E94050409E824
:142AA80013E00E94F603D9C028E001E10E94050409E813E07A
:142ABC000E94F60320E502E30E94390C20E50AEA18D882DF50
:142AD00084E893E02090CF033090D0038215930524F481E056
:142AE4008093E602B3C0039906C08091E8028F5F8093E80228
:142AF800ABC00CE211E00E94B00428E002E049D965DF84E86E
:142B0C0093E02090CF033090D0038215930524F481E0809372
:142B2000E60296C0039906C08091E8028F5F8093E8028EC0CD
:142B34000CE211E00E94B00428E002E00E94050404E913E0E3
:142B48000E94F60343DF84E893E02090CF033090D003821531
:142B5C00930524F481E08093E60274C0039906C08091E802C8
:142B70008F5F8093E8026CC02090E802222029F42090E602A9
:142B8400222009F493CF62C028E002E00E94050404E913E005
:142B98000E94F60320E50AEA0E94390C20E502E30E947F0D96
:142BAC0013DF8091CF039091D0038436E0E09E0724F42224CF
:142BC0002092E6024EC0039906C08091E8028F5F8093E80211
:142BD40046C00CE211E00E94B00428E001E1DBD8F7DE80912F
:142BE800CF039091D0038436E0E09E0724F422242092E602FC
:142BFC0032C0039906C08091E8028F5F8093E8022AC00CE2B3
:142C100011E00E94B00428E001E10E94050409E813E00E944E
:142C2400F603D6DE8091CF039091D0038436E0E09E0724F4E1
:142C380022242092E60211C0039906C08091E8028F5F809379
:142C4C00E80209C02090E802222029F48091E602813009F421
:142C600095CF2090E802222009F486CF8091E602813011F41F
:142C740001E6AADE089522242092E80223E007E00E940504C9
:142C880008E713E00E94F60328E002E00E9405040EE613E03F
:142C9C000E94F60328E001E10E94050404E613E00E94F6037C
:142CB000DBC028E001E10E94050404E613E00E94F60320E563
:142CC40002E30E94390C20E50AEA0E947F0D80DE84E893E0CC
:142CD8002090CF033090D0038215930524F485E08093E7022B
:142CEC00B4C0039906C08091E8028F5F8093E802ACC00CE2BE
:142D000011E00E94B00428E002E047D863DE84E893E020909F
:142D1400CF033090D0038215930524F485E08093E70297C047
:142D2800039906C08091E8028F5F8093E8028FC00CE211E021
:142D3C000E94B00428E002E00E9405040EE613E00E94F60316
:142D500041DE84E893E02090CF033090D0038215930524F415
:142D640085E08093E70275C0039906C08091E8028F5F809367
:142D7800E8026DC02090E802222029F48091E702873009F489
:142D8C0092CF63C028E002E00E9405040EE613E00E94F60398
:142DA00020E50AEA0E94390C20E502E30E947F0D11DE809127
:142DB400CF039091D0038436E0E09E0724F487E08093E702AB
:142DC8004FC0039906C08091E8028F5F8093E80247C00CE2AB
:142DDC0011E00E94B00428E001E10E94CD0EF4DD8091CF0381
:142DF0009091D0038436E0E09E0724F487E08093E70232C04F
:142E0400039906C08091E8028F5F8093E8022AC00CE211E0A9
:142E18000E94B00428E001E10E94050404E613E00E94F60343
:142E2C00D3DD8091CF039091D0038436E0E09E0724F487E06D
:142E40008093E70211C0039906C08091E8028F5F8093E80269
:142E540009C02090E802222029F48091E702853009F494CF99
:142E68002090E802222009F485CF08959DC0AEDD84E893E0C5
:142E7C002090CF033090D0038215930504F580915101909181
:142E9000520101969093520180935101209054043090550448
:142EA4002C01420C531C87E090E0841595050CF07EC08091DB
:142EB8005101909152010197909352018093510174C0809188
:142ECC00CF039091D0038436E0E09E07F4F4809151019091A1
:142EE0005201019790935201809351012090520430905304FB
:142EF400820D931D8030E0E09E070CF058C0809151019091DE
:142F08005201019690935201809351014EC084E893E0209053
:142F1C00CD033090CE0382159305FCF4809153019091540146
:142F30000196909354018093530120905004309051042C01D1
:142F4400420C531C87E090E08415950584F5809153019091B3
:142F580054010197909354018093530126C08091CD039091B1
:142F6C00CE038436E0E09E07ECF4809153019091540101970E
:142F8000909354018093530120904E0430904F04820D931D0A
:142F94008030E0E09E075CF48091530190915401019690932F
:142FA80054018093530101C062CF08954A935A930DDD84E8AA
:142FBC0093E02090CF033090D003821593050CF0EEC02091EF
:142FD0005301309154010091510110915201AFDB209151011F
:142FE4003091520100E110E00E94744685ED91E01801280E66
:142FF800391EE0915301F0915401EE0FFF1FE20DF31D208019
:14300C003180222019F4332009F4A4C02091510130915201E5
:1430200000E110E00E94744685E591E01801280E391EE0917D
:143034005301F0915401EE0FFF1FE20DF31D208031802220B1
:1430480061F4332051F42091530130915401009151011091E8
:14305C005201E0DA7FC0209151013091520100E110E00E948A
:14307000744685E591E01801280E391EE0915301F091540176
:14308400EE0FFF1FE20DF31D20803180C1018130E0E09E07F5
:1430980021F08430E0E09E0759F42091530130915401009101
:1430AC005101109152010E94E80E54C0209151013091520107
:1430C00000E110E00E94744685E591E01801280E391EE091DD
:1430D4005301F0915401EE0FFF1FE20DF31D808191818230DF
:1430E800E0E09E0751F420915301309154010091510110918B
:1430FC0052012AD92FC0209151013091520100E110E00E94F1
:14311000744685E591E01801280E391EE0915301F0915401D5
:14312400EE0FFF1FE20DF31D808191818330E0E09E0759F405
:14313800209153013091540100915101109152010E941410CB
:14314C0009C02091530130915401009151011091520162D979
:1431600080915101909152010196909352018093510187E0AB
:1431740090E020905101309052018215930524F49093520105
:143188008093510120915301309154010091510110915201DC
:14319C000E94130F08EC10E00E94B004E2C28091CF03909179
:1431B000D0038436E0E09E070CF0EBC0209153013091540157
:1431C4000091510110915201B8DA209151013091520100E196
:1431D80010E00E94744685ED91E01801280E391EE091530149
:1431EC00F0915401EE0FFF1FE20DF31D20803180222019F43F
:14320000332009F4A4C0209151013091520100E110E00E947C
:14321400744685E591E01801280E391EE0915301F0915401D0
:14322800EE0FFF1FE20DF31D20803180222061F4332051F4F8
:14323C0020915301309154010091510110915201E9D97FC08B
:14325000209151013091520100E110E00E94744685E591E04B
:143264001801280E391EE0915301F0915401EE0FFF1FE20D0B
:14327800F31D20803180C1018130E0E09E0721F08430E0E084
:14328C009E0759F4209153013091540100915101109152014A
:1432A0000E94E80E54C0209151013091520100E110E00E94E4
:1432B400744685E591E01801280E391EE0915301F091540130
:1432C800EE0FFF1FE20DF31D808191818230E0E09E0751F469
:1432DC002091530130915401009151011091520133D82FC0F2
:1432F000209151013091520100E110E00E94744685E591E0AB
:143304001801280E391EE0915301F0915401EE0FFF1FE20D6A
:14331800F31D808191818330E0E09E0759F420915301309153
:14332C00540100915101109152010E94141009C020915301CD
:143340003091540100915101109152016BD8809151019091C5
:143354005201019790935201809351018030E0E09E0734F462
:14336800222433243092520120925101209153013091540180
:14337C0000915101109152010E94130F08EC10E00E94B00468
:14339000EEC184E893E02090CD033090CE03821593050CF05F
:1433A400EFC020915301309154010091510110915201C3D9D8
:1433B800209151013091520100E110E00E94744685ED91E0DA
:1433CC001801280E391EE0915301F0915401EE0FFF1FE20DA2
:1433E000F31D20803180222019F4332009F4A5C02091510171
:1433F4003091520100E110E00E94744685E591E01801280E5A
:14340800391EE0915301F0915401EE0FFF1FE20DF31D208004
:14341C003180222061F4332051F42091530130915401009110
:14343000510110915201F4D880C0209151013091520100E13E
:1434440010E00E94744685E591E01801280E391EE0915301E2
:14345800F0915401EE0FFF1FE20DF31D408151814130E0E0AC
:14346C005E0721F04430E0E05E0759F42091530130915401D5
:1434800000915101109152010E94E80E56C0209151013091EF
:14349400520100E110E00E94744685E591E01801280E391E23
:1434A800E0915301F0915401EE0FFF1FE20DF31D8081918148
:1434BC008230E0E09E0759F42091530130915401009151019A
:1434D000109152010E94AA1130C0209151013091520100E1AF
:1434E40010E00E94744685E591E01801280E391EE091530142
:1434F800F0915401EE0FFF1FE20DF31D808191818330E0E04A
:14350C009E0759F420915301309154010091510110915201C7
:143520000E9414100AC0209153013091540100915101109168
:1435340052010E941212809153019091540101969093540180
:143548008093530187E090E0209053013090540182159305E9
:14355C0024F4909354018093530120915301309154010091B8
:143570005101109152010E94130F08EC10E00E94B004F5C04E
:143584008091CD039091CE038436E0E09E070CF0ECC02091E8
:143598005301309154010091510110915201CBD82091510138
:1435AC003091520100E110E00E94744685ED91E01801280E98
:1435C000391EE0915301F0915401EE0FFF1FE20DF31D20804B
:1435D4003180222019F4332009F4A6C0209151013091520116
:1435E80000E110E00E94744685E591E01801280E391EE091B0
:1435FC005301F0915401EE0FFF1FE20DF31D208031802220E4
:1436100069F4332059F420915301309154010091510110910A
:1436240052010E94101380C0209151013091520100E110E052
:143638000E94744685E591E01801280E391EE0915301F0915B
:14364C005401EE0FFF1FE20DF31D408151814130E0E05E07D2
:1436600021F04430E0E05E0759F420915301309154010091B3
:143674005101109152010E94E80E56C0209151013091520137
:1436880000E110E00E94744685E591E01801280E391EE0910F
:14369C005301F0915401EE0FFF1FE20DF31D80819181823011
:1436B000E0E09E0759F42091530130915401009151011091B5
:1436C40052010E94AA1130C0209151013091520100E110E06A
:1436D8000E94744685E591E01801280E391EE0915301F091BB
:1436EC005401EE0FFF1FE20DF31D808191818330E0E09E0730
:1437000059F4209153013091540100915101109152010E94D4
:1437140014100AC020915301309154010091510110915201C1
:143728000E94121280915301909154010197909354018093C9
:14373C0053018030E0E09E0734F42224332430925401209282
:143750005301209153013091540100915101109152010E947D
:14376400130F08EC10E00E94B0045991499108950E94F546B7
:143778000E94230828E030E00E94B8451093CC030093CB03E6
:14378C000E94230828E030E00E94B8451093CA030093C903D6
:1437A0002091CB033091CC0300E110E00E94744685E591E0FE
:1437B4001801280E391EE091C903F091CA03EE0FFF1FE20DC6
:1437C800F31D20803180222029F5332019F58091D502815012
:1437DC008093D50220915301309154010091510110915201FD
:1437F0000E949F132091C9033091CA030091CB031091CC0397
:143804000E9410138091E5028F5F8093E502222427BE80E17F
:143818008093E4022091CB033091CC0300E110E00E94744667
:14382C0085E591E01801280E391EE091C903F091CA03EE0F7F
:14384000FF1FE20DF31D408151814130E0E05E072CF084E0AE
:1438540090E084179507DCF42091CB033091CC0300E110E009
:143868000E94744685E591E01801280E391EE091C903F091B1
:14387C00CA03EE0FFF1FE20DF31D808191818730E0E09E0722
:14389000F1F4209153013091540100915101109152010E94AB
:1438A4009F132091C9033091CA030091CB031091CC030E94E2
:1438B800E80E8091E5028F5F8093E502222427BE80E1809387
:1438CC00E4022091CB033091CC0300E110E00E94744685E55C
:1438E00091E01801280E391EE091C903F091CA03EE0FFF1F17
:1438F400E20DF31D808191818530E0E09E0719F58091D5029E
:143908008F5F8093D502209153013091540100915101109134
:14391C0052010E949F132091C9033091CA030091CB031091E5
:14393000CC030E94AA118091E5028F5F8093E502222427BE4C
:1439440080E18093E4022091CB033091CC0300E110E00E9493
:14395800744685E591E01801280E391EE091C903F091CA0395
:14396C00EE0FFF1FE20DF31D808191818630E0E09E0709F006
:14398000A7C08091D50281508093D50220915301309154010E
:1439940000915101109152010E949F132091C9033091CA03E9
:1439A8000091CB031091CC030E9414100E94230828E030E091
:1439BC000E94B8451093C8030093C7030E942308580128E05F
:1439D00030E00E94B8451093C6030093C50315C00E942308CB
:1439E40028E030E00E94B8451093C8030093C7030E94230880
:1439F800580128E030E00E94B8451093C6030093C503A090B4
:143A0C00C503B090C603AA0CBB1C2091C7033091C80300E160
:143A200010E00E947446680185ED91E01601280E391EF50160
:143A3400E20DF31D20803180222081F6332071F687E594E0DB
:143A48001601280E391EF501E20DF31D808191818130E0E04D
:143A5C009E0709F0BFCF2091C5033091C6030091C70310912B
:143A7000C8030E9449072091C5033091C6030091C703109186
:143A8400C8030E94D4132091C7033091C80300E110E00E9460
:143A9800744685E592E01801280E391EE091C503F091C6035B
:143AAC00EE0FFF1FE20DF31D81E090E0918380838091E5020C
:143AC0008F5F8093E502222427BE80E18093E4022091CB0306
:143AD4003091CC0300E110E00E94744685E591E01801280EF7
:143AE800391EE091C903F091CA03EE0FFF1FE20DF31D8081CD
:143AFC0091818830E0E09E0729F520915301309154010091BD
:143B10005101109152010E949F132091C9033091CA0300916B
:143B2400CB031091CC030E9412120E9433158091D5028150E6
:143B38008093D5028091E5028F5F8093E502222427BE80E123
:143B4C008093E4022091CB033091CC0300E110E00E94744630
:143B600085ED91E01801280E391EE091C903F091CA03EE0F40
:143B7400FF1FE20DF31D81E090E09183808304E610E00E94BC
:143B8800B0040C94FC460E94CE46F8D32091510130915201FB
:143B9C0000E110E00E94744685E591E01801280E391EE091F6
:143BB0005301F0915401EE0FFF1FE20DF31D2080318022202A
:143BC40029F5332019F58091D50281508093D50220915301C6
:143BD8003091540100915101109152010E949F132091530193
:143BEC003091540100915101109152010E9410138091E5021B
:143C00008F5F8093E502222427BE80E18093E4022091510140
:143C14003091520100E110E00E94744685E591E01801280E31
:143C2800391EE0915301F0915401EE0FFF1FE20DF31D2080DC
:143C3C003180C1018130E0E09E072CF084E090E082159305CC
:143C5000DCF4209151013091520100E110E00E94744685E5E2
:143C640091E01801280E391EE0915301F0915401EE0FFF1F7F
:143C7800E20DF31D808191818730E0E09E07F1F42091530120
:143C8C003091540100915101109152010E949F1320915301DE
:143CA0003091540100915101109152010E94E80E8091E50293
:143CB4008F5F8093E502222427BE80E18093E402209151018C
:143CC8003091520100E110E00E94744685E591E01801280E7D
:143CDC00391EE0915301F0915401EE0FFF1FE20DF31D8081C7
:143CF00091818530E0E09E0719F58091D5028F5F8093D502C6
:143D0400209153013091540100915101109152010E949F1365
:143D1800209153013091540100915101109152010E94AA1148
:143D2C008091E5028F5F8093E502222427BE80E18093E4021E
:143D4000209151013091520100E110E00E94744685E591E050
:143D54001801280E391EE0915301F0915401EE0FFF1FE20D10
:143D6800F31D808191818630E0E09E0709F0A7C08091D502C1
:143D7C0081508093D5022091530130915401009151011091D9
:143D900052010E949F132091530130915401009151011091D9
:143DA40052010E9414100E94230828E030E00E94B8451093CB
:143DB800CC030093CB030E942308580128E030E00E94B845EA
:143DCC001093CA030093C90315C00E94230828E030E00E94B8
:143DE000B8451093CC030093CB030E942308580128E030E0C1
:143DF4000E94B8451093CA030093C903A090C903B090CA0344
:143E0800AA0CBB1C2091CB033091CC0300E110E00E947446DD
:143E1C00680185ED91E01601280E391EF501E20DF31D20800D
:143E30003180222081F6332071F687E594E01601280E391ED6
:143E4400F501E20DF31D808191818130E0E09E0709F0BFCFC5
:143E58002091C9033091CA030091CB031091CC030E9449078A
:143E6C002091C9033091CA030091CB031091CC030E94D413DF
:143E80002091CB033091CC0300E110E00E94744685E592E016
:143E94001801280E391EE091C903F091CA03EE0FFF1FE20DDF
:143EA800F31D81E090E0918380838091E5028F5F8093E5022E
:143EBC00222427BE80E18093E402209151013091520100E175
:143ED00010E00E94744685E591E01801280E391EE09153014C
:143EE400F0915401EE0FFF1FE20DF31D808191818830E0E04F
:143EF8009E0729F52091530130915401009151011091520101
:143F0C000E949F13209153013091540100915101109152015B
:143F20000E9412120E9433158091D50281508093D502809129
:143F3400E5028F5F8093E502222427BE80E18093E402A090F5
:143F4800D203B090D303AA0CBB1C2091D6033091D70300E1E7
:143F5C0010E00E947446680185ED91E01601280E391EF5011F
:143F7000E20DF31D20803180222011F4332021F185E591E066
:143F84001601280E391EF501E20DF31D808191818830E0E005
:143F98009E07B1F42091D2033091D3030091D6031091D703C9
:143FAC000E949F132091D2033091D3030091D6031091D703AB
:143FC0000E9412120E9433152091D8033091D90300E110E043
:143FD4000E94744685ED91E01801280E391EE091D403F0912B
:143FE800D503EE0FFF1FE20DF31D20803180222011F43320E8
:143FFC0089F12091D8033091D90300E110E00E94744685E577
:1440100091E01801280E391EE091D403F091D503EE0FFF1FC9
:14402400E20DF31D808191818830E0E09E07B1F42091D4032C
:144038003091D5030091D8031091D9030E949F132091D40316
:14404C003091D5030091D8031091D9030E9412120E9433152E
:14406000209151013091520100E110E00E94744685ED91E025
:144074001801280E391EE0915301F0915401EE0FFF1FE20DED
:14408800F31D81E090E09183808304E610E00E94B00403E712
:14409C000E94E61400915101109152010E94E614009153011C
:1440B000109154010E94E6140C94B8460E94C8462897002439
:1440C4001124198208821B820A821D820C821F820E8266277A
:1440D8007727AA24BB24CC24DD2444275527EE24FF2400E19B
:1440EC0010E09A010E947446180185E591E0280E391EF70160
:14410000EE0FFF1FE20DF31D808191818130E0E09E07D1F4A3
:144114008EE194E0E881F981EE0FFF1FE80FF91F5183408310
:1441280086E194E0E881F981EE0FFF1FE80FF91FF182E082C6
:14413C00888199810196998388830CC100E110E09A010E94B3
:144150007446180185E591E0280E391EF701EE0FFF1FE20D1E
:14416400F31D808191818230E0E09E07D1F48CE094E0EA81FD
:14417800FB81EE0FFF1FE80FF91F5183408382E094E0EA81B5
:14418C00FB81EE0FFF1FE80FF91FF182E0828A819B810196E6
:1441A0009B838A83DDC000E110E09A010E947446180185E5F8
:1441B40091E0280E391EF701EE0FFF1FE20DF31D80819181D4
:1441C8008330E0E09E07D1F48EEF93E0EC81FD81EE0FFF1F10
:1441DC00E80FF91F518340838AEF93E0EC81FD81EE0FFF1F37
:1441F000E80FF91FF182E0828C819D8101969D838C83AEC078
:1442040000E110E09A010E947446180185E591E0280E391E5D
:14421800F701EE0FFF1FE20DF31D808191818430E0E09E0754
:14422C00D1F482EF93E0EE81FF81EE0FFF1FE80FF91F5183E8
:1442400040838AEE93E0EE81FF81EE0FFF1FE80FF91FF18230
:14425400E0828E819F8101969F838E837FC000E110E09A0150
:144268000E947446180185E591E0280E391EF701EE0FFF1F52
:14427C00E20DF31D808191818530E0E09E07A9F486EE93E07E
:14429000FB01EE0FFF1FE80FF91F5183408382EE93E0FB017E
:1442A400EE0FFF1FE80FF91FF182E0826F5F7F4F55C000E175
:1442B80010E09A010E947446180185E591E0280E391EF70192
:1442CC00EE0FFF1FE20DF31D808191818630E0E09E07B1F4F1
:1442E0008EED93E0F501EE0FFF1FE80FF91F518340838AEDAE
:1442F40093E0F501EE0FFF1FE80FF91FF182E082C5010196F1
:144308005C012AC000E110E09A010E947446180185E591E09E
:14431C00280E391EF701EE0FFF1FE20DF31D80819181873024
:14433000E0E09E07A9F486ED93E0F601EE0FFF1FE80FF91F70
:144344005183408382ED93E0F601EE0FFF1FE80FF91FF18258
:14435800E082C60101966C01C70101967C018830E0E09E072B
:14436C000CF4BDCE4F5F5F4F4830E0E05E070CF4B4CE289679
:144380000C94BD46AA92BA924090D2035090D3035201AA0C9A
:14439400BB1C2091D6033091D70300E110E00E9474463801B3
:1443A80085EC91E01301280E391EF501E20DF31D2080318038
:1443BC00222019F4332009F445C085EE91E01301280E391EC4
:1443D000F501E20DF31D20803180222019F4332009F436C0FE
:1443E40085ED91E05301A80EB91EF2013197EE0FFF1FEA0D34
:1443F800FB1D20803180222011F4332029F1F2013196EE0FDD
:14440C00FF1FEA0DFB1D20803180222011F43320C9F020911A
:14442000D6033091D70300E110E00E94744685E591E01801F3
:14443400280E391EE091D203F091D303EE0FFF1FE20DF31D30
:1444480088E090E0918380832091D8033091D90300E110E077
:14445C000E94744685EC91E01801280E391EE091D403F0919F
:14447000D503EE0FFF1FE20DF31D20803180222019F4332053
:1444840009F46EC02091D8033091D90300E110E00E947446A3
:1444980085EE91E01801280E391EE091D403F091D503EE0FE8
:1444AC00FF1FE20DF31D20803180222019F4332009F452C0DD
:1444C0002091D8033091D90300E110E00E94744685ED91E0AF
:1444D4001801280E391EE091D403F091D5033197EE0FFF1FAA
:1444E800E20DF31D20803180222019F4332009F435C020912B
:1444FC00D8033091D90300E110E00E94744685ED91E018010B
:14451000280E391EE091D403F091D5033196EE0FFF1FE20D98
:14452400F31D20803180222011F43320C9F02091D803309182
:14453800D90300E110E00E94744685E591E01801280E391EE5
:14454C00E091D403F091D503EE0FFF1FE20DF31D88E090E0C8
:1445600091838083B990A99008958091DF02813011F41C9AB3
:1445740029C08091DF02823011F41D9A23C08091DF02833062
:1445880011F41E9A1DC08091DF02843011F41F9A17C0809139
:14459C00E002813011F41B9A11C08091E002823011F41A9A8F
:1445B0000BC08091E102813011F4199A05C08091E102823064
:1445C40009F4189A089585E085BD83E884BD80E487BF80E832
:1445D8008FBF08950E94D34658012224332430925504209266
:1445EC00540430925304209252043092510420925004309263
:144600004F0420924E0487EB93E0A816B90609F09EC044272B
:1446140055271A01220C331C21018BE091E0F101E80FF91F7F
:14462800208031802091530130915401220D331D81E091E0C1
:14463C00F201E80FF91F208031800091510110915201020D31
:14465000131D0E9449074F5F5F4F4430E0E05E07D4F244270E
:14466400552781E091E0FA01EE0FFF1FE80FF91F208031807E
:144678004090540450905504421453045CF4FA01EE0FFF1FBA
:14468C00E80FF91F20803180309255042092540481E091E0C3
:1446A000FA01EE0FFF1FE80FF91F208031804090520450908A
:1446B4005304241435045CF4FA01EE0FFF1FE80FF91F208015
:1446C800318030925304209252048BE091E0FA01EE0FFF1F1A
:1446DC00E80FF91F2080318040905004509051044214530464
:1446F0005CF4FA01EE0FFF1FE80FF91F2080318030925104D9
:14470400209250048BE091E0FA01EE0FFF1FE80FF91F2080FA
:14471800318040904E0450904F04241435045CF4FA01EE0FCE
:14472C00FF1FE80FF91F2080318030924F0420924E044F5F34
:144740005F4F4430E0E05E070CF48DCF40C180EB93E0A81625
:14475400B90609F09EC0442755271A01220C331C21018FE12A
:1447680091E0F101E80FF91F2080318020915301309154015F
:14477C00220D331D85E191E0F201E80FF91F208031800091EF
:14479000510110915201020D131D0E9449074F5F5F4F4530CD
:1447A400E0E05E07D4F24427552785E191E0FA01EE0FFF1F42
:1447B800E80FF91F208031804090540450905504421453047F
:1447CC005CF4FA01EE0FFF1FE80FF91F2080318030925504F8
:1447E0002092540485E191E0FA01EE0FFF1FE80FF91F20801F
:1447F40031804090520450905304241435045CF4FA01EE0FEA
:14480800FF1FE80FF91F2080318030925304209252048FE18D
:14481C0091E0FA01EE0FFF1FE80FF91F20803180409050047D
:1448300050905104421453045CF4FA01EE0FFF1FE80FF91F1D
:144844002080318030925104209250048FE191E0FA01EE0F19
:14485800FF1FE80FF91F2080318040904E0450904F04241441
:14486C0035045CF4FA01EE0FFF1FE80FF91F20803180309277
:144880004F0420924E044F5F5F4F4530E0E05E070CF48DCF7B
:144894009CC0442755275A01AA0CBB1C83E391E0F501E80F21
:1448A800F91F208031802091530130915401220D331D89E28E
:1448BC0091E0F501E80FF91F2080318000915101109152014A
:1448D000020D131D0E9449074F5F5F4F4230E0E05E07DCF2E2
:1448E4004427552789E291E0FA01EE0FFF1FE80FF91F208038
:1448F80031804090540450905504421453045CF4FA01EE0FA5
:14490C00FF1FE80FF91F20803180309255042092540489E289
:1449200091E0FA01EE0FFF1FE80FF91F208031804090520476
:1449340050905304241435045CF4FA01EE0FFF1FE80FF91F52
:1449480020803180309253042092520483E391E0FA01EE0F1A
:14495C00FF1FE80FF91F20803180409050045090510442141A
:1449700053045CF4FA01EE0FFF1FE80FF91F20803180309254
:1449840051042092500483E391E0FA01EE0FFF1FE80FF91FC8
:144998002080318040904E0450904F04241435045CF4FA01A9
:1449AC00EE0FFF1FE80FF91F2080318030924F0420924E0463
:1449C0004F5F5F4F4230E0E05E070CF48DCF209054043090CC
:1449D40055044090510150905201420C531C87E090E08415F4
:1449E800950554F480915101909152010197909352018093E1
:1449FC00510148C02090520430905304809151019091520159
:144A1000820D931D8030E0E09E0754F480915101909152011F
:144A24000196909352018093510130C0209050043090510403
:144A38004090530150905401420C531C87E090E0841595054A
:144A4C0054F4809153019091540101979093540180935301BC
:144A600017C020904E0430904F048091530190915401820DEC
:144A7400931D8030E0E09E074CF480915301909154010196B7
:144A880090935401809353010C94D8465F9BFECF0CB11127C1
:144A9C0008950E94DD46442755276627772700E110E09A0126
:144AB0000E947446180187E594E0280E391EFB01EE0FFF1FF9
:144AC400E20DF31D008111810E94E6146F5F7F4F6830E0E03C
:144AD8007E073CF34F5F5F4F4830E0E05E07FCF20C94E24667
:144AEC000E94DD464427552766277727CDDF280100E110E039
:144B00009A010E947446180185E591E0280E391EFB01EE0F30
:144B1400FF1FE20DF31D518240826F5F7F4F6830E0E07E0762
:144B28003CF34F5F5F4F4830E0E05E07FCF20C94E2462297E2
:144B3C008FEF8ABB222427BA8FE184BB8EE181BB8FEF82B968
:144B500080E88093610082E080936A0081E089BF80E88FBF37
:144B64002BB888E18AB986E0809395002092900087E689B9AF
:144B780087E886B90E9487040E94C4040E943C152090E60259
:144B8C00222011F00C9449360E94C40404E610E00E94B00419
:144BA0000E943D168091E702853011F00C9449360E94C404D3
:144BB40027E007E00E94050405E513E00E94F60308EE13E0F3
:144BC8000E94B0040E94C40427E002E00E94050401E413E0AD
:144BDC000E94F60328E002E00E9405040AE213E00E94F6031B
:144BF00004EC19E00E94B0040C9449360E9487040E94C404BC
:144C04000E94DF0B81E090E0909355048093540422243324BB
:144C1800309253042092520490935104809350048FEF9FEF7C
:144C2C0090934F0480934E040C9447360E94EA1420915301D7
:144C40003091540100915101109152010E94FB042090CF0350
:144C54003090D00384E893E0821593059CF0C1018436E0E0E3
:144C68009E0774F02090CD033090CE0384E893E08215930510
:144C7C002CF0C1018436E0E09E07B4F420905101309052016A
:144C90003092EC022092EB0220905301309054013092EE02F6
:144CA4002092ED020E943A1781E08093E9020BC0029904C0DF
:144CB80082E08093E90205C0039903C083E08093E9028091F2
:144CCC00E902813009F07AC022242092D10328C0A090D1034D
:144CE000BB24A7FCB094AA0CBB1C8BE091E0F501E80FF91F8C
:144CF400208031802091ED023091EE02220D331D81E091E0B9
:144D0800F501E80FF91F208031800091EB021091EC02020D25
:144D1C00131D0E9449078091D1038F5F8093D1038091D103C2
:144D30008430A4F2A0905101B09052012090540430905504EF
:144D44002501420C531C87E090E08415950534F12090520443
:144D580030905304C501820D931D8030E0E09E07DCF0A0901A
:144D6C005301B090540120905004309051042501420C531C4E
:144D800087E090E0841595055CF020904E0430904F04C501EE
:144D9400820D931D8030E0E09E0784F42090EB023090EC02F4
:144DA80030925201209251012090ED023090EE023092540178
:144DBC002092530122242092E902C0C08091E902823009F0D3
:144DD0003BC022242092D10328C0A090D103BB24A7FCB09456
:144DE400AA0CBB1C8BE091E0F501E80FF91F2080318020914B
:144DF800530130915401220D331D81E091E0F501E80FF91FE7
:144E0C00208031800091510110915201020D131D0E94490739
:144E20008091D1038F5F8093D1038091D1038430A4F207EBA3
:144E340013E00E94700507EB13E0CEDB22242092E90280C0AF
:144E48008091E902833009F07BC022242092D10337C0A09080
:144E5C00D103BB24A7FCB094AA0CBB1C81E091E0F501E80F5C
:144E7000F91F208031802091510130915201220D331D00E14E
:144E840010E00E947446180187E594E0280E391E8BE091E06C
:144E9800F501E80FF91F40805180E0915301F0915401E40DE4
:144EAC00F51DEE0FFF1FE20DF31D81E090E0918380838091CD
:144EC000D1038F5F8093D1038091D10384300CF4C4CF209059
:144ED40051013090520130924D0420924C042090530130908C
:144EE800540130924B0420924A0481E090E0909352018093F6
:144EFC005101909354018093530182E0909355048093540428
:144F10008FEF9FEF90935304809352042224332430925104EA
:144F24002092500490934F0480934E048091EA028F5F80939A
:144F3800EA020CE211E00E94B0048FEF8093E9022090EA022C
:144F4C00222009F473CE4AC20E94EA142090E902222071F5E2
:144F60004091CF035091D00384E893E0841795077CF04436EA
:144F7400E0E05E075CF04091CD035091CE038417950724F01A
:144F88004436E0E05E07B4F420905101309052013092EC0209
:144F9C002092EB0220905301309054013092EE022092ED02F6
:144FB0000E943A1781E08093E90213C02090E902222031F4C6
:144FC400029904C082E08093E90209C02090E902222029F457
:144FD800039903C083E08093E9028091E9028F3F09F0B8C0CA
:144FEC0020914A0430914B0400914C0410914D040E94FB042E
:1450000022242092D103A5C0A090D103BB24A7FCB094AA0CEB
:14501400BB1C85E191E0F501E80FF91F208031802091510181
:1450280030915201220D331D00E110E00E947446180187E52F
:14503C0094E0280E391E8FE191E0F501E80FF91F40805180E8
:14505000E0915301F0915401E40DF51DEE0FFF1FE20DF31D94
:1450640020803180222019F4332009F445C0A090D103BB2460
:14507800A7FCB094AA0CBB1CF501E80FF91F208031802091A9
:14508C00530130915401220D331D85E191E0F501E80FF91F4B
:1450A000208031800091510110915201020D131D0E944907A3
:1450B400A090D103BB24A7FCB094AA0CBB1C8FE191E0F501BA
:1450C800E80FF91F208031802091530130915401220D331DDA
:1450DC0085E191E0F501E80FF91F208031800091510110910F
:1450F0005201020D131D0E94A90923C0A090D103BB24A7FC5D
:14510400B094AA0CBB1C8FE191E0F501E80FF91F208031808F
:145118002091530130915401220D331D85E191E0F501E80F25
:14512C00F91F208031800091510110915201020D131D0E944E
:14514000C70422242092E9028091D1038F5F8093D1038091E2
:14515400D10385300CF456CF8091E902813009F034C02224B9
:145168002092D10328C0A090D103BB24A7FCB094AA0CBB1C6E
:14517C008FE191E0F501E80FF91F208031802091ED02309187
:14519000EE02220D331D85E191E0F501E80FF91F208031806F
:1451A4000091EB021091EC02020D131D0E9449078091D103D4
:1451B8008F5F8093D1038091D1038530A4F28FEF8093E90262
:1451CC000DC18091E902823009F03BC022242092D10328C0AB
:1451E000A090D103BB24A7FCB094AA0CBB1C8FE191E0F5018D
:1451F400E80FF91F208031802091530130915401220D331DAD
:1452080085E191E0F501E80FF91F20803180009151011091E1
:14521C005201020D131D0E9449078091D1038F5F8093D10340
:145230008091D1038530A4F200EB13E00E94700500EB13E067
:14524400CBD98FEF8093E902CDC08091E902833009F0C8C079
:1452580022242092D1033CC0A090D103BB24A7FCB094AA0CFA
:14526C00BB1C85E191E0F501E80FF91F208031802091510127
:1452800030915201220D331D00E110E00E947446180187E5D5
:1452940094E0280E391E8FE191E0F501E80FF91F408051808E
:1452A800E0915301F0915401E40DF51DEE0FFF1FE20DF31D3A
:1452BC0020803180222011F4332019F081E08093EF02809174
:1452D000D1038F5F8093D1038091D10385300CF4BFCF209049
:1452E400EF02222009F076C022242092D10337C0A090D1038D
:1452F800BB24A7FCB094AA0CBB1C85E191E0F501E80FF91F73
:14530C00208031802091510130915201220D331D00E110E0D5
:145320000E947446180187E594E0280E391E8FE191E0F501C0
:14533400E80FF91F40805180E0915301F0915401E40DF51D27
:14534800EE0FFF1FE20DF31D82E090E0918380838091D10369
:14535C008F5F8093D1038091D10385300CF4C4CF2090510139
:145370003090520130924904209248042090530130905401F0
:14538400309247042092460422243324309252012092510156
:14539800309254012092530181E090E090935504809354042C
:1453AC003092530420925204309251042092500430924F049A
:1453C00020924E048091EA028F5F8093EA020CE211E00E946A
:1453D400B00405C00E94331522242092EF028FEF8093E902FD
:1453E8008091EA02813009F4B1CD57C20E94EA142090E90234
:1453FC00222071F54091CF035091D00384E893E08417950788
:145410007CF04436E0E05E075CF04091CD035091CE03841743
:14542400950724F04436E0E05E07B4F4209051013090520168
:145438003092EC022092EB0220905301309054013092EE0246
:14544C002092ED020E943A1781E08093E90213C02090E902EB
:14546000222031F4029904C082E08093E90209C02090E902AE
:14547400222029F4039903C083E08093E9028091E9028F3F3B
:1454880009F0C2C020914A0430914B0400914C0410914D04B3
:14549C000E94FB042091460430914704009148041091490489
:1454B0000E94220522242092D103A5C0A090D103BB24A7FC68
:1454C400B094AA0CBB1C89E291E0F501E80FF91F20803180D1
:1454D8002091510130915201220D331D00E110E00E947446FD
:1454EC00180187E594E0280E391E83E391E0F501E80FF91F4A
:1455000040805180E0915301F0915401E40DF51DEE0FFF1F4D
:14551400E20DF31D20803180222019F4332009F445C0A0905F
:14552800D103BB24A7FCB094AA0CBB1CF501E80FF91F2080A3
:14553C0031802091530130915401220D331D89E291E0F5013E
:14555000E80FF91F208031800091510110915201020D131DD1
:145564000E944907A090D103BB24A7FCB094AA0CBB1C83E384
:1455780091E0F501E80FF91F2080318020915301309154013D
:14558C00220D331D89E291E0F501E80FF91F208031800091C9
:1455A000510110915201020D131D0E94A90923C0A090D10337
:1455B400BB24A7FCB094AA0CBB1C83E391E0F501E80FF91FB4
:1455C800208031802091530130915401220D331D89E291E008
:1455DC00F501E80FF91F208031800091510110915201020D7F
:1455F000131D0E94C70422242092E9028091D1038F5F809341
:14560400D1038091D10382300CF456CF8091E902813009F05C
:1456180034C022242092D10328C0A090D103BB24A7FCB0940C
:14562C00AA0CBB1C83E391E0F501E80FF91F208031802091FF
:14564000ED023091EE02220D331D89E291E0F501E80FF91F56
:14565400208031800091EB021091EC02020D131D0E944907B3
:145668008091D1038F5F8093D1038091D1038230A4F28FEFC9
:14567C008093E90210C18091E902823009F03CC022242092B0
:14569000D10328C0A090D103BB24A7FCB094AA0CBB1C83E38D
:1456A40091E0F501E80FF91F20803180209153013091540110
:1456B800220D331D89E291E0F501E80FF91F2080318000919C
:1456CC00510110915201020D131D0E9449078091D1038F5F80
:1456E0008093D1038091D1038230A4F203E213E00E947005B3
:1456F40003E213E00E94EE228FEF8093E902CFC08091E90211
:14570800833009F0CAC022242092D1033CC0A090D103BB24AC
:14571C00A7FCB094AA0CBB1C89E291E0F501E80FF91F208084
:1457300031802091510130915201220D331D00E110E00E94AB
:145744007446180187E594E0280E391E83E391E0F501E80F4D
:14575800F91F40805180E0915301F0915401E40DF51DEE0FF9
:14576C00FF1FE20DF31D20803180222011F4332019F081E0B7
:145780008093EF028091D1038F5F8093D1038091D1038230C0
:145794000CF4BFCF2090EF02222009F078C022242092D10393
:1457A80037C0A090D103BB24A7FCB094AA0CBB1C89E291E0C3
:1457BC00F501E80FF91F208031802091510130915201220D3D
:1457D000331D00E110E00E947446180187E594E0280E391EC2
:1457E40083E391E0F501E80FF91F40805180E0915301F091FE
:1457F8005401E40DF51DEE0FFF1FE20DF31D83E090E0918344
:14580C0080838091D1038F5F8093D1038091D10382300CF434
:14582000C4CF20905101309052013092450420924404209017
:14583400530130905401309243042092420422243324309297
:1458480052012092510181E090E09093540180935301909322
:14585C0055048093540430925304209252043092510420928A
:1458700050048FEF9FEF90934F0480934E048091EA028F5FFE
:145884008093EA020CE211E00E94B00405C00E9433152224E7
:145898002092EF028FEF8093E9028091EA02823009F4A4CDC0
:1458AC0059C20E94EA142090E902222071F54091CF03509166
:1458C000D00384E893E0841795077CF04436E0E05E075CF094
:1458D4004091CD035091CE038417950724F04436E0E05E0783
:1458E800B4F420905101309052013092EC022092EB022090F0
:1458FC005301309054013092EE022092ED020E943A1781E088
:145910008093E90209C02090E902222029F4039903C082E001
:145924008093E9028091E9028F3F09F0CDC020914A04309161
:145938004B0400914C0410914D040E94FB04209146043091DC
:14594C00470400914804109149040E942205209142043091B0
:14596000430400914404109145040E94490522242092D1036D
:14597400A5C0A090D103BB24A7FCB094AA0CBB1C87E391E088
:14598800F501E80FF91F208031802091510130915201220D6F
:14599C00331D00E110E00E947446180187E594E0280E391EF4
:1459B00081E491E0F501E80FF91F40805180E0915301F09131
:1459C4005401E40DF51DEE0FFF1FE20DF31D208031802220CA
:1459D80019F4332009F445C0A090D103BB24A7FCB094AA0CD9
:1459EC00BB1CF501E80FF91F2080318020915301309154015F
:145A0000220D331D87E391E0F501E80FF91F20803180009151
:145A1400510110915201020D131D0E944907A090D103BB2424
:145A2800A7FCB094AA0CBB1C81E491E0F501E80FF91F20807B
:145A3C0031802091530130915401220D331D87E391E0F5013A
:145A5000E80FF91F208031800091510110915201020D131DCC
:145A64000E94A90923C0A090D103BB24A7FCB094AA0CBB1CA0
:145A780081E491E0F501E80FF91F2080318020915301309128
:145A8C005401220D331D87E391E0F501E80FF91F2080318001
:145AA0000091510110915201020D131D0E94C7042224209277
:145AB400E9028091D1038F5F8093D1038091D10384300CF4A0
:145AC80056CF4AC18091E902813009F07AC022242092D103EE
:145ADC0028C0A090D103BB24A7FCB094AA0CBB1C81E491E0A1
:145AF000F501E80FF91F208031802091ED023091EE02220DCC
:145B0400331D87E391E0F501E80FF91F208031800091EB028E
:145B18001091EC02020D131D0E9449078091D1038F5F8093D3
:145B2C00D1038091D1038430A4F2A0905101B090520120909D
:145B40005404309055042501420C531C87E090E084159505F3
:145B540034F12090520430905304C501820D931D8030E0E086
:145B68009E07DCF0A0905301B0905401209050043090510486
:145B7C002501420C531C87E090E0841595055CF020904E04DA
:145B900030904F04C501820D931D8030E0E09E0784F42090AC
:145BA400EB023090EC0230925201209251012090ED023090DA
:145BB800EE0230925401209253018FEF8093E902CBC08091B4
:145BCC00E902823009F0C6C022242092D1033CC0A090D103DD
:145BE000BB24A7FCB094AA0CBB1C87E391E0F501E80FF91F7E
:145BF400208031802091510130915201220D331D00E110E0E5
:145C08000E947446180187E594E0280E391E81E491E0F501DA
:145C1C00E80FF91F40805180E0915301F0915401E40DF51D36
:145C3000EE0FFF1FE20DF31D20803180222011F4332019F052
:145C440081E08093EF028091D1038F5F8093D1038091D10348
:145C580084300CF4BFCF2090EF02222009F074C022242092EE
:145C6C00D10337C0A090D103BB24A7FCB094AA0CBB1C87E398
:145C800091E0F501E80FF91F20803180209151013091520132
:145C9400220D331D00E110E00E947446180187E594E0280E21
:145CA800391E81E491E0F501E80FF91F40805180E091530160
:145CBC00F0915401E40DF51DEE0FFF1FE20DF31D84E090E00D
:145CD000918380838091D1038F5F8093D1038091D103843056
:145CE4000CF4C4CF2090510130905201309241042092400407
:145CF800209053013090540130923F0420923E0422243324E9
:145D0C00309252012092510130925401209253013092550432
:145D2000209254043092530420925204309251042092500427
:145D340030924F0420924E048091EA028F5F8093EA020CE26A
:145D480011E00E94B00405C00E94331522242092EF028FEFEA
:145D5C008093E9028091EA02833009F4A2CD25C10E94EA1493
:145D70002090E902222071F54091CF035091D00384E893E0A6
:145D8400841795077CF04436E0E05E075CF04091CD035091FB
:145D9800CE038417950724F04436E0E05E07B4F42090510192
:145DAC00309052013092EC022092EB02209053013090540168
:145DC0003092EE022092ED020E943A1781E08093E90209C061
:145DD4002090E902222029F4039903C082E08093E9028091F1
:145DE800E9028F3F09F06AC020914A0430914B0400914C04DB
:145DFC0010914D040E94FB042091460430914704009148041C
:145E1000109149040E942205209142043091430400914404EF
:145E2400109145040E94490520913E0430913F0400914004C4
:145E3800109141040E942207209151013091520100E110E0BD
:145E4C000E94744687E594E01801280E391EE0915301F0911A
:145E60005401EE0FFF1FE20DF31D20803180222011F43320D4
:145E7400A9F0209153013091540100915101109152010E94ED
:145E88004907209153013091540100915101109152010E9422
:145E9C00A9090AC02091530130915401009151011091520184
:145EB0000E94450922242092E9020CE211E00E94B00479C09D
:145EC4008091E902813071F42091ED023091EE020091EB02E9
:145ED8001091EC020E9449078FEF8093E90267C08091E90296
:145EEC00823009F062C0209151013091520100E110E00E944B
:145F0000744687E594E01801280E391EE0915301F0915401B2
:145F1400EE0FFF1FE20DF31D20803180222009F040C0332080
:145F280009F03DC0209151013091520100E110E00E9474462B
:145F3C0087E594E01801280E391EE0915301F0915401EE0F33
:145F5000FF1FE20DF31D85E090E09183808320905101309072
:145F6400520130923D0420923C042090530130905401309206
:145F78003B0420923A0422243324309252012092510130926E
:145F8C005401209253018091EA028F5F8093EA020CE211E0DD
:145FA0000E94B00405C00E94331522242092EF028FEF80936E
:145FB400E9028091EA02843009F4D6CE2FC10E94EA1420905C
:145FC800E902222071F54091CF035091D00384E893E0841761
:145FDC0095077CF04436E0E05E075CF04091CD035091CE036B
:145FF0008417950724F04436E0E05E07B4F420905101309049
:1460040052013092EC022092EB02209053013090540130920B
:14601800EE022092ED020E943A1781E08093E90209C0209018
:14602C00E902222029F4039903C082E08093E9028091E9025B
:146040008F3F09F074C020913A0430913B0400913C041091F0
:146054003D040E94450920914A0430914B0400914C04109176
:146068004D040E94FB042091460430914704009148041091AD
:14607C0049040E942205209142043091430400914404109181
